:100000004CC050C165C064C063C062C061C060C004
:100010005FC05EC05DC05CC05BC05AC059C058C004
:1000200057C056C055C005010905A10105091901B0
:10003000290B150025017501950B8102950581039A
:10004000C0040309041003630072006500650070BA
:1000500000690064001003410052004D0020005070
:1000600000610064001201010100000008424231F9
:10007000E1000101020001090222000101008032B9
:100080000904000001030000000921010100012210
:100090001B000705810308000A0011241FBECFE5DD
:1000A000D4E0DEBFCDBF10E0A0E6B0E0EEE2F8E0C5
:1000B00002C005900D92A436B107D9F710E0A4E66E
:1000C000B0E001C01D92A13AB107E1F72DD0ADC358
:1000D00097CFFC0188E690E090938600809385009E
:1000E000808180768032F1F48181813051F4809179
:1000F000640080936800809165008093690082E0CD
:100100000895823041F48AE690E0909386008093CF
:10011000850081E008958A3029F4838180936A0004
:1001200080E0089580E008959F92AF92BF92CF92B1
:10013000DF92EF92FF920F931F93CF93DF932FE005
:1001400088E190E00FB6F894A89581BD0FBE21BD5F
:100150008AEF82BB87E081BB8FEF85BB14BA82E058
:1001600081BB85E083BF80E487B985E886B91AD270
:100170007894AA24BB24EE24FF2400E021E0C22EC0
:10018000D12C9924939404C091E0E92EF12C012FF5
:10019000A89512D2F0E060E070E020E030E0E22FBD
:1001A000822F8770806487B9369A349BFECF349A49
:1001B00094B185B1D82FC0E0492F50E04C2B5D2B76
:1001C0004333510540F48F2F90E0E43068F00497FA
:1001D000820F931F21C0B3E041325B0720F5E4306A
:1001E00068F48F2F90E00196820F931FD60102C012
:1001F000AA0FBB1F8A95E2F77A2B15C08F2F90E0CC
:10020000E53049F40196D60102C0AA0FBB1F8A95BA
:10021000E2F76A2B0CC00196D60102C0AA0FBB1FE1
:100220008A95E2F76A2BE33011F4F0E001C0FF5F3A
:100230002F5F3F4F2630310509F0B1CF5093670053
:10024000409366006093650070936400872F90E090
:10025000860F911DA816B90621F05C0181E0E82EF9
:10026000F12C08B600FE0AC098BE10916A00112356
:1002700029F0053040F0102F155001C0102FE11467
:10028000F10409F484CF8091620084FF7DCF7093E4
:1002900068006093690062E088E690E0A3D2EE24F3
:1002A000FF2475CFCF93CFB7CF93809BFECF809B9A
:1002B00009C0809B07C0809B05C0809B03C0809BBA
:1002C00001C09EC0DF93C0918400DD27C557DF4F7A
:1002D000809B02C0DF91EBCF2F930F931F9300B34E
:1002E0002FEF00FB20F94F933F9310B34FEF0127FF
:1002F00000FB21F93BE031C04E7F012F10B321609C
:1003000028C0102F4D7F2260000000B329C04B7F12
:100310002460012F000010B32BC010B3477F28606A
:100320002AC04F7E00B320612CC04F7D10B32062E5
:100330002FC04F7B00B3206432C0422700B34993E3
:100340004FEF0000102710FB20F910B31570A9F132
:10035000297F91F2012700FB21F900B3237F89F265
:100360003150F0F1102710FB22F910B3277E79F2FB
:10037000012700FB23F92F7C81F200B3102710FB2B
:1003800024F92F7971F200C010B3012700FB25F981
:100390002F7359F200C000B3102710FB26F922304A
:1003A00040F200C010B3012700FB27F9243028F6E3
:1003B0004F77206810B30000F9CF3B5031953330B0
:1003C00010E41ABFB8F0C31BD0400881033C41F1D0
:1003D0000B3431F11981412F1F77209182001217C0
:1003E00031F4093691F10D3279F0013E69F022279E
:1003F000209389003F914F911F910F912F91DF9191
:10040000CF91CFBFCF911895009389003F914F9125
:100410001F910F912F91DF91CAB7C6FD46CFF0CF44
:1004200000918900002331F3109187001123A1F579
:100430003430A2F130938700009383001091840040
:100440003BE0311B3093840029C0009187000130CC
:100450001CF50AE547FD09C03091610034FD20C05C
:1004600000936100CCE6D0E01FC03091620034FD03
:1004700017C000936200C7E7D0E016C0052710E060
:1004800002BB1FC0052722C0052727C005272CC097
:10049000052710E002BB33C04AE503C042ED01C0AE
:1004A000432FC4E1D0E032E011B31560909A02B35B
:1004B00011BB5F9355E020E820FF052702BB27957D
:1004C00017951C3FD8F620FF0527279502BB1795E7
:1004D0001C3FC0F620FF05272795179502BB1C3F40
:1004E00098F620FF0527279517951C3F02BB70F64D
:1004F00000C0499120FF052702BB279517951C3F97
:1005000038F620FF0527279502BB17951C3F38F5C5
:1005100020FF05272795179502BB1C3F10F520FFEC
:100520000527279517951C3F02BBE8F4242F3A9521
:1005300019F60A7F5F9102BB00C010918800C65176
:10054000D04011F01093820010E41ABF016011B383
:100550001A7F402F4A7F02BB11BB42BB4BCF0527FE
:10056000D3CF0527D8CF0527DDCFA82FB92F8FEF01
:100570009FEF41E050EA615070F02D9138E0722F0A
:10058000782796958795269570FF02C08427952732
:100590003A95A9F7F0CF809590950895E6DF8D9371
:1005A0009D93089585B7836085BF8BB780648BBFAB
:1005B00083EC8093770008950F931F93CF93DF937D
:1005C0009091870019160CF0B1C0209184008091A1
:1005D00083008D3209F0A0C08AE5809361009B30D2
:1005E00009F09AC0CCE0D0E0C21BD109C557DF4F5B
:1005F0008881807609F082C01092750089818823F5
:1006000059F41092760085E790E0909386008093ED
:10061000850090E822E079C0853021F48A818093BA
:1006200088006AC0863009F04CC08B81813049F463
:1006300085E690E0909386008093850090EC22E11F
:1006400064C0823049F487E790E0909386008093FD
:10065000850090EC22E259C08330E9F48A81882336
:1006600049F481E490E0909386008093850090ECBB
:1006700024E04BC0813019F485E490E005C082305D
:1006800009F041C085E590E0909386008093850055
:1006900090EC20E13AC0813249F489E890E09093EF
:1006A00086008093850090EC29E02FC0823259F5B6
:1006B00086E290E0909386008093850090EC2BE199
:1006C00024C0883019F48AE890E00AC0893021F407
:1006D0008A8180938A0010C08A3049F485E790E0CF
:1006E000909386008093850090E821E00EC08B30C7
:1006F00019F483EC8093770090E806C0CE01E9DC22
:10070000282F90E802C090EC20E08F81882339F4F4
:100710008E81821728F003C090E880E001C0822F0C
:1007200090936B008093600010928700809161002D
:1007300084FF49C0809160008F3F09F444C0182FA6
:10074000893008F018E0811B8093600080916B0075
:1007500080FD02C00BE401C003EC8F5F80936B004F
:10076000209185003091860086FD05C0D901912F2A
:10077000EDE6F0E011C0ADE6B0E080E090E006C04C
:10078000F901E80FF91FE491ED9301961817C1F7ED
:1007900005C08D91819391509923D9F7F901E10F0B
:1007A000F11DF0938600E0938500612F8DE690E0C7
:1007B000F5DE183019F08FEF8093600000936C0025
:1007C0001C5F109361009AE080B3857031F4915002
:1007D000D9F71092880010928200DF91CF911F917B
:1007E0000F9108951F93DC01162F8091620084FF02
:1007F0000AC08091770098E8892780937700912F2D
:10080000E8E7F0E007C08AE580936200F8CF8D91B9
:10081000819391509923D9F7612F88E790E0BEDE4C
:0E0820001C5F109362001F910895F894FFCFA3
:04082E00FF5A5A0013
:00000001FF
